{
  "_format": "hh-sol-artifact-1",
  "contractName": "Election",
  "sourceName": "contracts/Election.sol",
  "abi": [
    {
      "inputs": [
        {
          "internalType": "string",
          "name": "_electionName",
          "type": "string"
        },
        {
          "internalType": "string[]",
          "name": "_candidateNames",
          "type": "string[]"
        }
      ],
      "stateMutability": "nonpayable",
      "type": "constructor"
    },
    {
      "inputs": [
        {
          "internalType": "address",
          "name": "owner",
          "type": "address"
        }
      ],
      "name": "OwnableInvalidOwner",
      "type": "error"
    },
    {
      "inputs": [
        {
          "internalType": "address",
          "name": "account",
          "type": "address"
        }
      ],
      "name": "OwnableUnauthorizedAccount",
      "type": "error"
    },
    {
      "inputs": [],
      "name": "ReentrancyGuardReentrantCall",
      "type": "error"
    },
    {
      "anonymous": false,
      "inputs": [
        {
          "indexed": false,
          "internalType": "string",
          "name": "name",
          "type": "string"
        },
        {
          "indexed": false,
          "internalType": "uint256",
          "name": "candidateCount",
          "type": "uint256"
        }
      ],
      "name": "ElectionCreated",
      "type": "event"
    },
    {
      "anonymous": false,
      "inputs": [
        {
          "indexed": false,
          "internalType": "uint256",
          "name": "totalVotes",
          "type": "uint256"
        }
      ],
      "name": "ElectionEnded",
      "type": "event"
    },
    {
      "anonymous": false,
      "inputs": [
        {
          "indexed": true,
          "internalType": "address",
          "name": "previousOwner",
          "type": "address"
        },
        {
          "indexed": true,
          "internalType": "address",
          "name": "newOwner",
          "type": "address"
        }
      ],
      "name": "OwnershipTransferred",
      "type": "event"
    },
    {
      "anonymous": false,
      "inputs": [
        {
          "indexed": false,
          "internalType": "enum Election.Phase",
          "name": "newPhase",
          "type": "uint8"
        }
      ],
      "name": "PhaseChanged",
      "type": "event"
    },
    {
      "anonymous": false,
      "inputs": [
        {
          "indexed": true,
          "internalType": "address",
          "name": "voter",
          "type": "address"
        }
      ],
      "name": "VoteCommitted",
      "type": "event"
    },
    {
      "anonymous": false,
      "inputs": [
        {
          "indexed": true,
          "internalType": "address",
          "name": "voter",
          "type": "address"
        },
        {
          "indexed": false,
          "internalType": "uint256",
          "name": "candidateId",
          "type": "uint256"
        }
      ],
      "name": "VoteRevealed",
      "type": "event"
    },
    {
      "anonymous": false,
      "inputs": [
        {
          "indexed": true,
          "internalType": "address",
          "name": "voter",
          "type": "address"
        }
      ],
      "name": "VoterAdded",
      "type": "event"
    },
    {
      "anonymous": false,
      "inputs": [
        {
          "indexed": true,
          "internalType": "address",
          "name": "voter",
          "type": "address"
        }
      ],
      "name": "VoterRemoved",
      "type": "event"
    },
    {
      "anonymous": false,
      "inputs": [
        {
          "indexed": false,
          "internalType": "uint256",
          "name": "count",
          "type": "uint256"
        }
      ],
      "name": "VotersAddedBatch",
      "type": "event"
    },
    {
      "inputs": [
        {
          "internalType": "address",
          "name": "_voter",
          "type": "address"
        }
      ],
      "name": "addVoter",
      "outputs": [],
      "stateMutability": "nonpayable",
      "type": "function"
    },
    {
      "inputs": [
        {
          "internalType": "address[]",
          "name": "_voters",
          "type": "address[]"
        }
      ],
      "name": "addVotersBatch",
      "outputs": [],
      "stateMutability": "nonpayable",
      "type": "function"
    },
    {
      "inputs": [
        {
          "internalType": "uint256",
          "name": "",
          "type": "uint256"
        }
      ],
      "name": "candidates",
      "outputs": [
        {
          "internalType": "uint256",
          "name": "id",
          "type": "uint256"
        },
        {
          "internalType": "string",
          "name": "name",
          "type": "string"
        },
        {
          "internalType": "uint256",
          "name": "voteCount",
          "type": "uint256"
        }
      ],
      "stateMutability": "view",
      "type": "function"
    },
    {
      "inputs": [
        {
          "internalType": "bytes32",
          "name": "_commitHash",
          "type": "bytes32"
        }
      ],
      "name": "commitVote",
      "outputs": [],
      "stateMutability": "nonpayable",
      "type": "function"
    },
    {
      "inputs": [
        {
          "internalType": "address",
          "name": "",
          "type": "address"
        }
      ],
      "name": "commitments",
      "outputs": [
        {
          "internalType": "bytes32",
          "name": "commitHash",
          "type": "bytes32"
        },
        {
          "internalType": "bool",
          "name": "revealed",
          "type": "bool"
        }
      ],
      "stateMutability": "view",
      "type": "function"
    },
    {
      "inputs": [],
      "name": "currentPhase",
      "outputs": [
        {
          "internalType": "enum Election.Phase",
          "name": "",
          "type": "uint8"
        }
      ],
      "stateMutability": "view",
      "type": "function"
    },
    {
      "inputs": [],
      "name": "electionName",
      "outputs": [
        {
          "internalType": "string",
          "name": "",
          "type": "string"
        }
      ],
      "stateMutability": "view",
      "type": "function"
    },
    {
      "inputs": [
        {
          "internalType": "address",
          "name": "",
          "type": "address"
        }
      ],
      "name": "eligibleVoters",
      "outputs": [
        {
          "internalType": "bool",
          "name": "",
          "type": "bool"
        }
      ],
      "stateMutability": "view",
      "type": "function"
    },
    {
      "inputs": [],
      "name": "endElection",
      "outputs": [],
      "stateMutability": "nonpayable",
      "type": "function"
    },
    {
      "inputs": [
        {
          "internalType": "uint256",
          "name": "_candidateId",
          "type": "uint256"
        }
      ],
      "name": "getCandidate",
      "outputs": [
        {
          "internalType": "uint256",
          "name": "id",
          "type": "uint256"
        },
        {
          "internalType": "string",
          "name": "name",
          "type": "string"
        },
        {
          "internalType": "uint256",
          "name": "voteCount",
          "type": "uint256"
        }
      ],
      "stateMutability": "view",
      "type": "function"
    },
    {
      "inputs": [],
      "name": "getCandidateCount",
      "outputs": [
        {
          "internalType": "uint256",
          "name": "",
          "type": "uint256"
        }
      ],
      "stateMutability": "view",
      "type": "function"
    },
    {
      "inputs": [],
      "name": "getCurrentPhase",
      "outputs": [
        {
          "internalType": "string",
          "name": "",
          "type": "string"
        }
      ],
      "stateMutability": "view",
      "type": "function"
    },
    {
      "inputs": [],
      "name": "getResults",
      "outputs": [
        {
          "components": [
            {
              "internalType": "uint256",
              "name": "id",
              "type": "uint256"
            },
            {
              "internalType": "string",
              "name": "name",
              "type": "string"
            },
            {
              "internalType": "uint256",
              "name": "voteCount",
              "type": "uint256"
            }
          ],
          "internalType": "struct Election.Candidate[]",
          "name": "",
          "type": "tuple[]"
        }
      ],
      "stateMutability": "view",
      "type": "function"
    },
    {
      "inputs": [],
      "name": "getStats",
      "outputs": [
        {
          "internalType": "uint256",
          "name": "eligible",
          "type": "uint256"
        },
        {
          "internalType": "uint256",
          "name": "committed",
          "type": "uint256"
        },
        {
          "internalType": "uint256",
          "name": "revealed",
          "type": "uint256"
        },
        {
          "internalType": "string",
          "name": "phase",
          "type": "string"
        }
      ],
      "stateMutability": "view",
      "type": "function"
    },
    {
      "inputs": [],
      "name": "getWinner",
      "outputs": [
        {
          "internalType": "uint256",
          "name": "winnerId",
          "type": "uint256"
        },
        {
          "internalType": "string",
          "name": "winnerName",
          "type": "string"
        },
        {
          "internalType": "uint256",
          "name": "winnerVotes",
          "type": "uint256"
        }
      ],
      "stateMutability": "view",
      "type": "function"
    },
    {
      "inputs": [
        {
          "internalType": "address",
          "name": "",
          "type": "address"
        }
      ],
      "name": "hasCommitted",
      "outputs": [
        {
          "internalType": "bool",
          "name": "",
          "type": "bool"
        }
      ],
      "stateMutability": "view",
      "type": "function"
    },
    {
      "inputs": [
        {
          "internalType": "address",
          "name": "_voter",
          "type": "address"
        }
      ],
      "name": "hasRevealed",
      "outputs": [
        {
          "internalType": "bool",
          "name": "",
          "type": "bool"
        }
      ],
      "stateMutability": "view",
      "type": "function"
    },
    {
      "inputs": [
        {
          "internalType": "address",
          "name": "_voter",
          "type": "address"
        }
      ],
      "name": "hasVoted",
      "outputs": [
        {
          "internalType": "bool",
          "name": "",
          "type": "bool"
        }
      ],
      "stateMutability": "view",
      "type": "function"
    },
    {
      "inputs": [
        {
          "internalType": "address",
          "name": "_voter",
          "type": "address"
        }
      ],
      "name": "isEligible",
      "outputs": [
        {
          "internalType": "bool",
          "name": "",
          "type": "bool"
        }
      ],
      "stateMutability": "view",
      "type": "function"
    },
    {
      "inputs": [],
      "name": "owner",
      "outputs": [
        {
          "internalType": "address",
          "name": "",
          "type": "address"
        }
      ],
      "stateMutability": "view",
      "type": "function"
    },
    {
      "inputs": [
        {
          "internalType": "address",
          "name": "_voter",
          "type": "address"
        }
      ],
      "name": "removeVoter",
      "outputs": [],
      "stateMutability": "nonpayable",
      "type": "function"
    },
    {
      "inputs": [],
      "name": "renounceOwnership",
      "outputs": [],
      "stateMutability": "nonpayable",
      "type": "function"
    },
    {
      "inputs": [
        {
          "internalType": "uint256",
          "name": "_candidateId",
          "type": "uint256"
        },
        {
          "internalType": "bytes32",
          "name": "_salt",
          "type": "bytes32"
        }
      ],
      "name": "revealVote",
      "outputs": [],
      "stateMutability": "nonpayable",
      "type": "function"
    },
    {
      "inputs": [],
      "name": "startCommitPhase",
      "outputs": [],
      "stateMutability": "nonpayable",
      "type": "function"
    },
    {
      "inputs": [],
      "name": "startRevealPhase",
      "outputs": [],
      "stateMutability": "nonpayable",
      "type": "function"
    },
    {
      "inputs": [],
      "name": "totalCommitments",
      "outputs": [
        {
          "internalType": "uint256",
          "name": "",
          "type": "uint256"
        }
      ],
      "stateMutability": "view",
      "type": "function"
    },
    {
      "inputs": [],
      "name": "totalEligibleVoters",
      "outputs": [
        {
          "internalType": "uint256",
          "name": "",
          "type": "uint256"
        }
      ],
      "stateMutability": "view",
      "type": "function"
    },
    {
      "inputs": [],
      "name": "totalRevealed",
      "outputs": [
        {
          "internalType": "uint256",
          "name": "",
          "type": "uint256"
        }
      ],
      "stateMutability": "view",
      "type": "function"
    },
    {
      "inputs": [
        {
          "internalType": "address",
          "name": "newOwner",
          "type": "address"
        }
      ],
      "name": "transferOwnership",
      "outputs": [],
      "stateMutability": "nonpayable",
      "type": "function"
    },
    {
      "inputs": [
        {
          "internalType": "uint256",
          "name": "",
          "type": "uint256"
        }
      ],
      "name": "validCandidateId",
      "outputs": [
        {
          "internalType": "bool",
          "name": "",
          "type": "bool"
        }
      ],
      "stateMutability": "view",
      "type": "function"
    }
  ],
  "bytecode": "0x60806040523480156200001157600080fd5b50604051620022c0380380620022c083398101604081905262000034916200041c565b33806200005c57604051631e4fbdf760e01b8152600060048201526024015b60405180910390fd5b6200006781620002e9565b5060018055805160021115620000c05760405162461bcd60e51b815260206004820152601a60248201527f4e656564206174206c6561737420322063616e64696461746573000000000000604482015260640162000053565b603281511115620001145760405162461bcd60e51b815260206004820152601360248201527f546f6f206d616e792063616e6469646174657300000000000000000000000000604482015260640162000053565b6000825111620001675760405162461bcd60e51b815260206004820152601660248201527f456c656374696f6e206e616d6520726571756972656400000000000000000000604482015260640162000053565b6002620001758382620005a2565b506003805460ff1916905560005b8151811015620002a4576000828281518110620001a457620001a46200066e565b60200260200101515111620001fc5760405162461bcd60e51b815260206004820152601460248201527f456d7074792063616e646964617465206e616d65000000000000000000000000604482015260640162000053565b600a60405180606001604052808381526020018484815181106200022457620002246200066e565b6020908102919091018101518252600091810182905283546001818101865594835291819020835160039093020191825582015191929091908201906200026c9082620005a2565b506040918201516002909101556000828152600b60205220805460ff19166001179055806200029b8162000684565b91505062000183565b507f4863550ef2f8bf0ad7eaf72aab4e0a1ac209c52e4cebaebe58ff31a0c18ffe47828251604051620002d9929190620006ac565b60405180910390a15050620006e9565b600080546001600160a01b038381166001600160a01b0319831681178455604051919092169283917f8be0079c531659141344cd1fd0a4f28419497f9722a3daafe3b4186f6b6457e09190a35050565b634e487b7160e01b600052604160045260246000fd5b604051601f8201601f191681016001600160401b03811182821017156200037a576200037a62000339565b604052919050565b60005b838110156200039f57818101518382015260200162000385565b50506000910152565b600082601f830112620003ba57600080fd5b81516001600160401b03811115620003d657620003d662000339565b620003eb601f8201601f19166020016200034f565b8181528460208386010111156200040157600080fd5b6200041482602083016020870162000382565b949350505050565b600080604083850312156200043057600080fd5b82516001600160401b03808211156200044857600080fd5b6200045686838701620003a8565b93506020915081850151818111156200046e57600080fd5b8501601f810187136200048057600080fd5b80518281111562000495576200049562000339565b8060051b620004a68582016200034f565b918252828101850191858101908a841115620004c157600080fd5b86850192505b838310156200050257825186811115620004e15760008081fd5b620004f18c8983890101620003a8565b8352509186019190860190620004c7565b809750505050505050509250929050565b600181811c908216806200052857607f821691505b6020821081036200054957634e487b7160e01b600052602260045260246000fd5b50919050565b601f8211156200059d57600081815260208120601f850160051c81016020861015620005785750805b601f850160051c820191505b81811015620005995782815560010162000584565b5050505b505050565b81516001600160401b03811115620005be57620005be62000339565b620005d681620005cf845462000513565b846200054f565b602080601f8311600181146200060e5760008415620005f55750858301515b600019600386901b1c1916600185901b17855562000599565b600085815260208120601f198616915b828110156200063f578886015182559484019460019091019084016200061e565b50858210156200065e5787850151600019600388901b60f8161c191681555b5050505050600190811b01905550565b634e487b7160e01b600052603260045260246000fd5b600060018201620006a557634e487b7160e01b600052601160045260246000fd5b5060010190565b6040815260008351806040840152620006cd81606085016020880162000382565b602083019390935250601f91909101601f191601606001919050565b611bc780620006f96000396000f3fe608060405234801561001057600080fd5b50600436106101da5760003560e01c806385e8e7a711610104578063c6dbe15a116100a2578063e8fcf72311610071578063e8fcf7231461043a578063f2fde38b14610479578063f37385691461048c578063f4ab9adf1461049557600080fd5b8063c6dbe15a146103c9578063c6fd5d4e146103ec578063e61cb18d146103f4578063e8efd4801461041757600080fd5b80638e7ea5b2116100de5780638e7ea5b214610372578063a3a40ea51461037a578063b9a5301314610382578063c59d4847146103b157600080fd5b806385e8e7a71461032f57806386c1ff68146103445780638da5cb5b1461035757600080fd5b80634717f97c1161017c57806369edbcda1161014b57806369edbcda14610303578063715018a6146103165780637183f43a1461031e57806378bb86d31461032657600080fd5b80634717f97c146102a757806359f78468146102bc5780635d9122a1146102c457806366e305fd146102d757600080fd5b806330a56347116101b857806330a56347146102555780633477ee2e1461025d57806335b8e8201461027f5780633e8589231461029257600080fd5b8063055ad42e146101df57806309eef43e14610202578063107b96d11461023e575b600080fd5b6003546101ec9060ff1681565b6040516101f991906117a6565b60405180910390f35b61022e6102103660046117ce565b6001600160a01b031660009081526005602052604090205460ff1690565b60405190151581526020016101f9565b61024760075481565b6040519081526020016101f9565b600a54610247565b61027061026b3660046117fe565b6104a8565b6040516101f993929190611867565b61027061028d3660046117fe565b610566565b6102a56102a03660046117fe565b6106ab565b005b6102af610867565b6040516101f99190611890565b6102a561096c565b6102a56102d2366004611911565b610a2b565b61022e6102e53660046117ce565b6001600160a01b031660009081526004602052604090205460ff1690565b6102a5610311366004611986565b610c1f565b6102a5610ee9565b6102a5610efd565b61024760085481565b610337610fc3565b6040516101f991906119a8565b6102a56103523660046117ce565b611051565b6000546040516001600160a01b0390911681526020016101f9565b610270611154565b61033761132b565b61022e6103903660046117ce565b6001600160a01b031660009081526006602052604090206001015460ff1690565b6103b9611410565b6040516101f994939291906119bb565b61022e6103d73660046117ce565b60056020526000908152604090205460ff1681565b6102a5611494565b61022e6104023660046117fe565b600b6020526000908152604090205460ff1681565b61022e6104253660046117ce565b60046020526000908152604090205460ff1681565b6104646104483660046117ce565b6006602052600090815260409020805460019091015460ff1682565b604080519283529015156020830152016101f9565b6102a56104873660046117ce565b611558565b61024760095481565b6102a56104a33660046117ce565b611596565b600a81815481106104b857600080fd5b600091825260209091206003909102018054600182018054919350906104dd906119ea565b80601f0160208091040260200160405190810160405280929190818152602001828054610509906119ea565b80156105565780601f1061052b57610100808354040283529160200191610556565b820191906000526020600020905b81548152906001019060200180831161053957829003601f168201915b5050505050908060020154905083565b600060606000600a8054905084106105bc5760405162461bcd60e51b8152602060048201526014602482015273125b9d985b1a590818d85b991a59185d1948125160621b60448201526064015b60405180910390fd5b6000600a85815481106105d1576105d1611a24565b906000526020600020906003020160405180606001604052908160008201548152602001600182018054610604906119ea565b80601f0160208091040260200160405190810160405280929190818152602001828054610630906119ea565b801561067d5780601f106106525761010080835404028352916020019161067d565b820191906000526020600020905b81548152906001019060200180831161066057829003601f168201915b5050509183525050600291909101546020918201528151908201516040909201519097919650945092505050565b3360009081526004602052604090205460ff166107025760405162461bcd60e51b81526020600482015260156024820152742737ba1030b71032b634b3b4b13632903b37ba32b960591b60448201526064016105b3565b6001806003805460ff169081111561071c5761071c611790565b146107395760405162461bcd60e51b81526004016105b390611a3a565b6107416116e9565b3360009081526005602052604090205460ff16156107955760405162461bcd60e51b8152602060048201526011602482015270105b1c9958591e4818dbdb5b5a5d1d1959607a1b60448201526064016105b3565b816107d15760405162461bcd60e51b815260206004820152600c60248201526b092dcecc2d8d2c840d0c2e6d60a31b60448201526064016105b3565b604080518082018252838152600060208083018281523383526006825284832093518455516001938401805491151560ff1992831617905560059091529281208054909316909117909155600880549161082a83611a85565b909155505060405133907fd8333eeb60b5f1fb9e6e2c3c665fb5ec81dee6d37fcd17dda27d169009d6c7eb90600090a261086360018055565b5050565b6060600a805480602002602001604051908101604052809291908181526020016000905b828210156109635783829060005260206000209060030201604051806060016040529081600082015481526020016001820180546108c8906119ea565b80601f01602080910402602001604051908101604052809291908181526020018280546108f4906119ea565b80156109415780601f1061091657610100808354040283529160200191610941565b820191906000526020600020905b81548152906001019060200180831161092457829003601f168201915b505050505081526020016002820154815250508152602001906001019061088b565b50505050905090565b610974611713565b6002806003805460ff169081111561098e5761098e611790565b146109ab5760405162461bcd60e51b81526004016105b390611a3a565b6003805460ff1916811781556040517fa6dcc92f45df25789d5639b7a0c97ba1edf3bb1c0b5dd3376fd96a0db87c4642916109e5916117a6565b60405180910390a17f562cd572b2ba3b666cd989fc4ca98419ec81e75f04528df9d9d76fdb7807ee71600954604051610a2091815260200190565b60405180910390a150565b610a33611713565b6000806003805460ff1690811115610a4d57610a4d611790565b14610a6a5760405162461bcd60e51b81526004016105b390611a3a565b81610aa55760405162461bcd60e51b815260206004820152600b60248201526a456d70747920617272617960a81b60448201526064016105b3565b6064821115610ae85760405162461bcd60e51b815260206004820152600f60248201526e426174636820746f6f206c6172676560881b60448201526064016105b3565b6000805b83811015610bce576000858583818110610b0857610b08611a24565b9050602002016020810190610b1d91906117ce565b90506001600160a01b03811615801590610b5057506001600160a01b03811660009081526004602052604090205460ff16155b15610bbb576001600160a01b0381166000908152600460205260409020805460ff1916600117905582610b8281611a85565b6040519094506001600160a01b03831691507fa636f4a11e2d3ba7f89d042ecb0a6b886716e98cd49d8fd876ee0f73bced42b890600090a25b5080610bc681611a85565b915050610aec565b508060076000828254610be19190611a9e565b90915550506040518181527fef8e329cb0413d926162f217bd8a51766934f70f9922c3cca03579a08c70697a9060200160405180910390a150505050565b3360009081526004602052604090205460ff16610c765760405162461bcd60e51b81526020600482015260156024820152742737ba1030b71032b634b3b4b13632903b37ba32b960591b60448201526064016105b3565b6002806003805460ff1690811115610c9057610c90611790565b14610cad5760405162461bcd60e51b81526004016105b390611a3a565b610cb56116e9565b3360009081526005602052604090205460ff16610d0a5760405162461bcd60e51b8152602060048201526013602482015272139bc818dbdb5b5a5d1b595b9d08199bdd5b99606a1b60448201526064016105b3565b3360009081526006602052604090206001015460ff1615610d605760405162461bcd60e51b815260206004820152601060248201526f105b1c9958591e481c995d99585b195960821b60448201526064016105b3565b6000838152600b602052604090205460ff16610db25760405162461bcd60e51b8152602060048201526011602482015270496e76616c69642063616e64696461746560781b60448201526064016105b3565b604080516020808201869052818301859052825180830384018152606090920183528151918101919091203360009081526006909252919020548114610e3a5760405162461bcd60e51b815260206004820152601e60248201527f48617368206d69736d61746368202d20696e76616c69642072657665616c000060448201526064016105b3565b3360009081526006602052604090206001908101805460ff19169091179055600a805485908110610e6d57610e6d611a24565b600091825260208220600260039092020101805491610e8b83611a85565b909155505060098054906000610ea083611a85565b909155505060405184815233907f522b45c661375abb939dc17b4b600412c93af64fcbe24859a73539d01bb4eec89060200160405180910390a250610ee460018055565b505050565b610ef1611713565b610efb6000611740565b565b610f05611713565b6000806003805460ff1690811115610f1f57610f1f611790565b14610f3c5760405162461bcd60e51b81526004016105b390611a3a565b600060075411610f855760405162461bcd60e51b8152602060048201526014602482015273139bc81d9bdd195c9cc81c9959da5cdd195c995960621b60448201526064016105b3565b6003805460ff191660019081179091556040517fa6dcc92f45df25789d5639b7a0c97ba1edf3bb1c0b5dd3376fd96a0db87c464291610a20916117a6565b60028054610fd0906119ea565b80601f0160208091040260200160405190810160405280929190818152602001828054610ffc906119ea565b80156110495780601f1061101e57610100808354040283529160200191611049565b820191906000526020600020905b81548152906001019060200180831161102c57829003601f168201915b505050505081565b611059611713565b6000806003805460ff169081111561107357611073611790565b146110905760405162461bcd60e51b81526004016105b390611a3a565b6001600160a01b03821660009081526004602052604090205460ff166110e95760405162461bcd60e51b815260206004820152600e60248201526d139bdd081c9959da5cdd195c995960921b60448201526064016105b3565b6001600160a01b0382166000908152600460205260408120805460ff19169055600780549161111783611ab7565b90915550506040516001600160a01b038316907fa14a79af012d1756818f9bd59ccfc9ad185a71df86b9392d9059d9e6faf6d64490600090a25050565b6000606081600380805460ff169081111561117157611171611790565b146111b35760405162461bcd60e51b8152602060048201526012602482015271115b1958dd1a5bdb881b9bdd08195b99195960721b60448201526064016105b3565b600a546111f25760405162461bcd60e51b815260206004820152600d60248201526c4e6f2063616e6469646174657360981b60448201526064016105b3565b60008060005b600a5481101561126b5782600a828154811061121657611216611a24565b906000526020600020906003020160020154111561125957600a818154811061124157611241611a24565b90600052602060002090600302016002015492508091505b8061126381611a85565b9150506111f8565b5080600a828154811061128057611280611a24565b90600052602060002090600302016001018381805461129e906119ea565b80601f01602080910402602001604051908101604052809291908181526020018280546112ca906119ea565b80156113175780601f106112ec57610100808354040283529160200191611317565b820191906000526020600020905b8154815290600101906020018083116112fa57829003601f168201915b505050505091509450945094505050909192565b606060006003805460ff169081111561134657611346611790565b03611372575060408051808201909152600c81526b2932b3b4b9ba3930ba34b7b760a11b602082015290565b60016003805460ff169081111561138b5761138b611790565b036113b1575060408051808201909152600681526510dbdb5b5a5d60d21b602082015290565b60026003805460ff16908111156113ca576113ca611790565b036113f0575060408051808201909152600681526514995d99585b60d21b602082015290565b50604080518082019091526005815264115b99195960da1b602082015290565b60008060006060600754600854600954306001600160a01b031663a3a40ea56040518163ffffffff1660e01b8152600401600060405180830381865afa15801561145e573d6000803e3d6000fd5b505050506040513d6000823e601f3d908101601f191682016040526114869190810190611ae4565b935093509350935090919293565b61149c611713565b6001806003805460ff16908111156114b6576114b6611790565b146114d35760405162461bcd60e51b81526004016105b390611a3a565b60006008541161151a5760405162461bcd60e51b8152602060048201526012602482015271139bc81d9bdd195cc818dbdb5b5a5d1d195960721b60448201526064016105b3565b6003805460ff191660029081179091556040517fa6dcc92f45df25789d5639b7a0c97ba1edf3bb1c0b5dd3376fd96a0db87c464291610a20916117a6565b611560611713565b6001600160a01b03811661158a57604051631e4fbdf760e01b8152600060048201526024016105b3565b61159381611740565b50565b61159e611713565b6000806003805460ff16908111156115b8576115b8611790565b146115d55760405162461bcd60e51b81526004016105b390611a3a565b6001600160a01b03821661161d5760405162461bcd60e51b815260206004820152600f60248201526e496e76616c6964206164647265737360881b60448201526064016105b3565b6001600160a01b03821660009081526004602052604090205460ff161561167b5760405162461bcd60e51b8152602060048201526012602482015271105b1c9958591e481c9959da5cdd195c995960721b60448201526064016105b3565b6001600160a01b0382166000908152600460205260408120805460ff1916600117905560078054916116ac83611a85565b90915550506040516001600160a01b038316907fa636f4a11e2d3ba7f89d042ecb0a6b886716e98cd49d8fd876ee0f73bced42b890600090a25050565b60026001540361170c57604051633ee5aeb560e01b815260040160405180910390fd5b6002600155565b6000546001600160a01b03163314610efb5760405163118cdaa760e01b81523360048201526024016105b3565b600080546001600160a01b038381166001600160a01b0319831681178455604051919092169283917f8be0079c531659141344cd1fd0a4f28419497f9722a3daafe3b4186f6b6457e09190a35050565b634e487b7160e01b600052602160045260246000fd5b60208101600483106117c857634e487b7160e01b600052602160045260246000fd5b91905290565b6000602082840312156117e057600080fd5b81356001600160a01b03811681146117f757600080fd5b9392505050565b60006020828403121561181057600080fd5b5035919050565b60005b8381101561183257818101518382015260200161181a565b50506000910152565b60008151808452611853816020860160208601611817565b601f01601f19169290920160200192915050565b838152606060208201526000611880606083018561183b565b9050826040830152949350505050565b60006020808301818452808551808352604092508286019150828160051b87010184880160005b8381101561190357603f19898403018552815160608151855288820151818a8701526118e58287018261183b565b928901519589019590955250948701949250908601906001016118b7565b509098975050505050505050565b6000806020838503121561192457600080fd5b823567ffffffffffffffff8082111561193c57600080fd5b818501915085601f83011261195057600080fd5b81358181111561195f57600080fd5b8660208260051b850101111561197457600080fd5b60209290920196919550909350505050565b6000806040838503121561199957600080fd5b50508035926020909101359150565b6020815260006117f7602083018461183b565b8481528360208201528260408201526080606082015260006119e0608083018461183b565b9695505050505050565b600181811c908216806119fe57607f821691505b602082108103611a1e57634e487b7160e01b600052602260045260246000fd5b50919050565b634e487b7160e01b600052603260045260246000fd5b6020808252818101527f496e76616c696420706861736520666f722074686973206f7065726174696f6e604082015260600190565b634e487b7160e01b600052601160045260246000fd5b600060018201611a9757611a97611a6f565b5060010190565b80820180821115611ab157611ab1611a6f565b92915050565b600081611ac657611ac6611a6f565b506000190190565b634e487b7160e01b600052604160045260246000fd5b600060208284031215611af657600080fd5b815167ffffffffffffffff80821115611b0e57600080fd5b818401915084601f830112611b2257600080fd5b815181811115611b3457611b34611ace565b604051601f8201601f19908116603f01168101908382118183101715611b5c57611b5c611ace565b81604052828152876020848701011115611b7557600080fd5b611b86836020830160208801611817565b97965050505050505056fea2646970667358221220a1d89acf8daff194c50e562f1313c518b278858f74dbc23699c98219da3a608e64736f6c63430008140033",
  "linkReferences": {},
  "deployedLinkReferences": {}
}